00120250101JUAN           PEREZ          000010005000000000030000100053
00120250102JUAN           PEREZ          000070005000000000510000700101
00120250201JUAN           PEREZ          000015005000000000060000150056
00120250202JUAN           PEREZ          000005005000000000010000050051
00120250301JUAN           PEREZ          000030005000000000170000300067
00120250302JUAN           PEREZ          000048005000000000320000480082
00220250101CARLOS         GARCIA         000086000000000000640000860064
00220250102CARLOS         GARCIA         000600000000000000760006000076
00220250201CARLOS         GARCIA         000100008000000000760001000156
00220250202CARLOS         GARCIA         000070000000000000510000700051
00220250301CARLOS         GARCIA         000030007000000000170000300087
00220250302CARLOS         GARCIA         000056005000000000390000560089