001JUAN           PEREZ          202501010000100050
001JUAN           PEREZ          202501020000700050
001JUAN           PEREZ          202502010000150050
001JUAN           PEREZ          202502020000050050
001JUAN           PEREZ          202503010000300050
001JUAN           PEREZ          202503020000480050
002CARLOS         GARCIA         202501010000860000
002CARLOS         GARCIA         202501020006000000
002CARLOS         GARCIA         202502010001000080
002CARLOS         GARCIA         202502020000700000
002CARLOS         GARCIA         202503010000300070
002CARLOS         GARCIA         202503020000560050